MPLINK 5.08, LINKER
Linker Map File - Created Mon Feb 27 13:04:28 2017

                                 Section Info
                  Section       Type    Address   Location Size(Bytes)
                ---------  ---------  ---------  ---------  ---------
                   .org_0       code   0x000000    program   0x0000ca
                   .cinit    romdata   0x000065    program   0x000004
.config_2007_BUILD/DEFAULT/PRODUCTION/MAIN.O       code   0x002007    program   0x000002



                              Program Memory Usage 
                               Start         End      
                           ---------   ---------      
                            0x000000    0x000066      
                            0x002007    0x002007      
            104 out of 8454 program addresses used, program memory utilization is 1%



                              Symbols - Sorted by Name
                     Name    Address   Location    Storage File                     
                ---------  ---------  ---------  --------- ---------                
               CicloMayor   0x00002a    program     static C:\Users\dany_\Desktop\801\MICROCONTROLADORES\EQUIPO 2\DisplayDiferenciaSentidoReloj.X\MAIN.asm
               CicloMenor   0x00002c    program     static C:\Users\dany_\Desktop\801\MICROCONTROLADORES\EQUIPO 2\DisplayDiferenciaSentidoReloj.X\MAIN.asm
                     DECC   0x00005f    program     static C:\Users\dany_\Desktop\801\MICROCONTROLADORES\EQUIPO 2\DisplayDiferenciaSentidoReloj.X\MAIN.asm
                    DECCC   0x00005d    program     static C:\Users\dany_\Desktop\801\MICROCONTROLADORES\EQUIPO 2\DisplayDiferenciaSentidoReloj.X\MAIN.asm
                  GiroMay   0x000041    program     static C:\Users\dany_\Desktop\801\MICROCONTROLADORES\EQUIPO 2\DisplayDiferenciaSentidoReloj.X\MAIN.asm
                   IGUAL2   0x00003c    program     static C:\Users\dany_\Desktop\801\MICROCONTROLADORES\EQUIPO 2\DisplayDiferenciaSentidoReloj.X\MAIN.asm
                     LEER   0x000000    program     static C:\Users\dany_\Desktop\801\MICROCONTROLADORES\EQUIPO 2\DisplayDiferenciaSentidoReloj.X\MAIN.asm
                    RESTA   0x000038    program     static C:\Users\dany_\Desktop\801\MICROCONTROLADORES\EQUIPO 2\DisplayDiferenciaSentidoReloj.X\MAIN.asm
                  RETARDO   0x000061    program     static C:\Users\dany_\Desktop\801\MICROCONTROLADORES\EQUIPO 2\DisplayDiferenciaSentidoReloj.X\MAIN.asm
                   TABLA1   0x000054    program     static C:\Users\dany_\Desktop\801\MICROCONTROLADORES\EQUIPO 2\DisplayDiferenciaSentidoReloj.X\MAIN.asm
           VerificarMayor   0x000031    program     static C:\Users\dany_\Desktop\801\MICROCONTROLADORES\EQUIPO 2\DisplayDiferenciaSentidoReloj.X\MAIN.asm
                    igual   0x00002f    program     static C:\Users\dany_\Desktop\801\MICROCONTROLADORES\EQUIPO 2\DisplayDiferenciaSentidoReloj.X\MAIN.asm
                    mayor   0x00003e    program     static C:\Users\dany_\Desktop\801\MICROCONTROLADORES\EQUIPO 2\DisplayDiferenciaSentidoReloj.X\MAIN.asm



                              Symbols - Sorted by Address
                     Name    Address   Location    Storage File                     
                ---------  ---------  ---------  --------- ---------                
                     LEER   0x000000    program     static C:\Users\dany_\Desktop\801\MICROCONTROLADORES\EQUIPO 2\DisplayDiferenciaSentidoReloj.X\MAIN.asm
               CicloMayor   0x00002a    program     static C:\Users\dany_\Desktop\801\MICROCONTROLADORES\EQUIPO 2\DisplayDiferenciaSentidoReloj.X\MAIN.asm
               CicloMenor   0x00002c    program     static C:\Users\dany_\Desktop\801\MICROCONTROLADORES\EQUIPO 2\DisplayDiferenciaSentidoReloj.X\MAIN.asm
                    igual   0x00002f    program     static C:\Users\dany_\Desktop\801\MICROCONTROLADORES\EQUIPO 2\DisplayDiferenciaSentidoReloj.X\MAIN.asm
           VerificarMayor   0x000031    program     static C:\Users\dany_\Desktop\801\MICROCONTROLADORES\EQUIPO 2\DisplayDiferenciaSentidoReloj.X\MAIN.asm
                    RESTA   0x000038    program     static C:\Users\dany_\Desktop\801\MICROCONTROLADORES\EQUIPO 2\DisplayDiferenciaSentidoReloj.X\MAIN.asm
                   IGUAL2   0x00003c    program     static C:\Users\dany_\Desktop\801\MICROCONTROLADORES\EQUIPO 2\DisplayDiferenciaSentidoReloj.X\MAIN.asm
                    mayor   0x00003e    program     static C:\Users\dany_\Desktop\801\MICROCONTROLADORES\EQUIPO 2\DisplayDiferenciaSentidoReloj.X\MAIN.asm
                  GiroMay   0x000041    program     static C:\Users\dany_\Desktop\801\MICROCONTROLADORES\EQUIPO 2\DisplayDiferenciaSentidoReloj.X\MAIN.asm
                   TABLA1   0x000054    program     static C:\Users\dany_\Desktop\801\MICROCONTROLADORES\EQUIPO 2\DisplayDiferenciaSentidoReloj.X\MAIN.asm
                    DECCC   0x00005d    program     static C:\Users\dany_\Desktop\801\MICROCONTROLADORES\EQUIPO 2\DisplayDiferenciaSentidoReloj.X\MAIN.asm
                     DECC   0x00005f    program     static C:\Users\dany_\Desktop\801\MICROCONTROLADORES\EQUIPO 2\DisplayDiferenciaSentidoReloj.X\MAIN.asm
                  RETARDO   0x000061    program     static C:\Users\dany_\Desktop\801\MICROCONTROLADORES\EQUIPO 2\DisplayDiferenciaSentidoReloj.X\MAIN.asm


