MPLINK 5.08, LINKER
Linker Map File - Created Tue Feb 28 16:01:33 2017

                                 Section Info
                  Section       Type    Address   Location Size(Bytes)
                ---------  ---------  ---------  ---------  ---------
                   .org_0       code   0x000000    program   0x0000e8
                   .cinit    romdata   0x000074    program   0x000004
.config_2007_BUILD/DEFAULT/PRODUCTION/MAIN.O       code   0x002007    program   0x000002



                              Program Memory Usage 
                               Start         End      
                           ---------   ---------      
                            0x000000    0x000075      
                            0x002007    0x002007      
            119 out of 8454 program addresses used, program memory utilization is 1%



                              Symbols - Sorted by Name
                     Name    Address   Location    Storage File                     
                ---------  ---------  ---------  --------- ---------                
                  COMPARA   0x000023    program     static C:\Users\dany_\Desktop\801\MICROCONTROLADORES\EQUIPO 2\GiroDiferencia.X\MAIN.asm
          DECREMENTO_GIRO   0x00003a    program     static C:\Users\dany_\Desktop\801\MICROCONTROLADORES\EQUIPO 2\GiroDiferencia.X\MAIN.asm
           DEFINE_SENTIDO   0x000019    program     static C:\Users\dany_\Desktop\801\MICROCONTROLADORES\EQUIPO 2\GiroDiferencia.X\MAIN.asm
                    DELAY   0x000070    program     static C:\Users\dany_\Desktop\801\MICROCONTROLADORES\EQUIPO 2\GiroDiferencia.X\MAIN.asm
                   DELAY2   0x00006e    program     static C:\Users\dany_\Desktop\801\MICROCONTROLADORES\EQUIPO 2\GiroDiferencia.X\MAIN.asm
              GIROS_LOCOS   0x00003d    program     static C:\Users\dany_\Desktop\801\MICROCONTROLADORES\EQUIPO 2\GiroDiferencia.X\MAIN.asm
           IGUAL_SIN_GIRO   0x000044    program     static C:\Users\dany_\Desktop\801\MICROCONTROLADORES\EQUIPO 2\GiroDiferencia.X\MAIN.asm
                   INICIO   0x000000    program     static C:\Users\dany_\Desktop\801\MICROCONTROLADORES\EQUIPO 2\GiroDiferencia.X\MAIN.asm
                    MAYOR   0x00002d    program     static C:\Users\dany_\Desktop\801\MICROCONTROLADORES\EQUIPO 2\GiroDiferencia.X\MAIN.asm
 MAYOR_GIRO_RELOJ_DERECHA   0x000048    program     static C:\Users\dany_\Desktop\801\MICROCONTROLADORES\EQUIPO 2\GiroDiferencia.X\MAIN.asm
MENOR_GIRO_RELOJ_IZQUIERDA   0x00005b    program     static C:\Users\dany_\Desktop\801\MICROCONTROLADORES\EQUIPO 2\GiroDiferencia.X\MAIN.asm
                    RESTA   0x000034    program     static C:\Users\dany_\Desktop\801\MICROCONTROLADORES\EQUIPO 2\GiroDiferencia.X\MAIN.asm
                SENTIDO_1   0x000020    program     static C:\Users\dany_\Desktop\801\MICROCONTROLADORES\EQUIPO 2\GiroDiferencia.X\MAIN.asm
                  VUELTAS   0x000038    program     static C:\Users\dany_\Desktop\801\MICROCONTROLADORES\EQUIPO 2\GiroDiferencia.X\MAIN.asm



                              Symbols - Sorted by Address
                     Name    Address   Location    Storage File                     
                ---------  ---------  ---------  --------- ---------                
                   INICIO   0x000000    program     static C:\Users\dany_\Desktop\801\MICROCONTROLADORES\EQUIPO 2\GiroDiferencia.X\MAIN.asm
           DEFINE_SENTIDO   0x000019    program     static C:\Users\dany_\Desktop\801\MICROCONTROLADORES\EQUIPO 2\GiroDiferencia.X\MAIN.asm
                SENTIDO_1   0x000020    program     static C:\Users\dany_\Desktop\801\MICROCONTROLADORES\EQUIPO 2\GiroDiferencia.X\MAIN.asm
                  COMPARA   0x000023    program     static C:\Users\dany_\Desktop\801\MICROCONTROLADORES\EQUIPO 2\GiroDiferencia.X\MAIN.asm
                    MAYOR   0x00002d    program     static C:\Users\dany_\Desktop\801\MICROCONTROLADORES\EQUIPO 2\GiroDiferencia.X\MAIN.asm
                    RESTA   0x000034    program     static C:\Users\dany_\Desktop\801\MICROCONTROLADORES\EQUIPO 2\GiroDiferencia.X\MAIN.asm
                  VUELTAS   0x000038    program     static C:\Users\dany_\Desktop\801\MICROCONTROLADORES\EQUIPO 2\GiroDiferencia.X\MAIN.asm
          DECREMENTO_GIRO   0x00003a    program     static C:\Users\dany_\Desktop\801\MICROCONTROLADORES\EQUIPO 2\GiroDiferencia.X\MAIN.asm
              GIROS_LOCOS   0x00003d    program     static C:\Users\dany_\Desktop\801\MICROCONTROLADORES\EQUIPO 2\GiroDiferencia.X\MAIN.asm
           IGUAL_SIN_GIRO   0x000044    program     static C:\Users\dany_\Desktop\801\MICROCONTROLADORES\EQUIPO 2\GiroDiferencia.X\MAIN.asm
 MAYOR_GIRO_RELOJ_DERECHA   0x000048    program     static C:\Users\dany_\Desktop\801\MICROCONTROLADORES\EQUIPO 2\GiroDiferencia.X\MAIN.asm
MENOR_GIRO_RELOJ_IZQUIERDA   0x00005b    program     static C:\Users\dany_\Desktop\801\MICROCONTROLADORES\EQUIPO 2\GiroDiferencia.X\MAIN.asm
                   DELAY2   0x00006e    program     static C:\Users\dany_\Desktop\801\MICROCONTROLADORES\EQUIPO 2\GiroDiferencia.X\MAIN.asm
                    DELAY   0x000070    program     static C:\Users\dany_\Desktop\801\MICROCONTROLADORES\EQUIPO 2\GiroDiferencia.X\MAIN.asm


